:020000040800F2
:10000000FFFF0220ED1E00083D1F00083D1F0008F5
:100010003D1F00083D1F00083D1F000800000000B4
:100020000000000000000000000000003D1F00086C
:100030003D1F0008000000003D1F00083D1F000894
:100040003D1F00083D1F00083D1F00083D1F000820
:100050003D1F00083D1F00083D1F00083D1F000810
:100060003D1F00083D1F00083D1F00083D1F000800
:100070003D1F00083D1F00083D1F00083D1F0008F0
:10008000810B00083D1F00083D1F00083D1F0008B0
:100090003D1F00083D1F00083D1F00083D1F0008D0
:1000A0003D1F00083D1F00083D1F00083D1F0008C0
:1000B0003D1F00083D1F00083D1F00083D1F0008B0
:1000C0003D1F00083D1F00083D1F00083D1F0008A0
:1000D0003D1F00083D1F00083D1F00083D1F000890
:1000E0003D1F00083D1F00083D1F00083D1F000880
:1000F0003D1F00083D1F00083D1F00083D1F000870
:100100003D1F00083D1F00083D1F00083D1F00085F
:100110003D1F00083D1F00083D1F00083D1F00084F
:100120003D1F00083D1F00083D1F00083D1F00083F
:100130003D1F00083D1F00083D1F00083D1F00082F
:100140003D1F00083D1F00083D1F00083D1F00081F
:100150003D1F00083D1F00083D1F00083D1F00080F
:100160003D1F00083D1F00083D1F00083D1F0008FF
:100170003D1F00083D1F00083D1F00080000000053
:100180003D1F00083D1F00083D1F00083D1F0008DF
:100190003D1F00083D1F00083D1F00083D1F0008CF
:0C01A0003D1F00083D1F00083D1F000827
:1001B00010B5054C237833B9044B13B10448AFF3A1
:1001C00000800123237010BD4004002000000000C7
:1001D000A0320008084B10B51BB108480849AFF31E
:1001E00000800848036803B910BD074B002BFBD003
:1001F000BDE81040184700BF00000000A032000812
:1002000044040020400400200000000080B485B0B9
:1002100000AF78607B6803F13F4303F57E03002B5A
:1002200001DA03F2FF339B12FB600D490C4B1B6993
:100230000120FA6800FA02F2D24313400B61084928
:10024000074B1B6B0120FA6800FA02F2134343F4D8
:1002500080130B631437BD465DF8047B704700BF05
:100260000038024080B400AF074A074B1B6A23F0F6
:1002700000531362044A044B1B6C43F00053136495
:10028000BD465DF8047B70470038024080B400AF83
:10029000074A074B1B6A23F010031362044A044BFE
:1002A0001B6C43F010031364BD465DF8047B70477C
:1002B0000038024080B487B000AF374B9B6803F42E
:1002C0008073FB60FB68002B02D101237B6109E096
:1002D000314B9B681B0903F0070301331A460123C6
:1002E00093407B612C4B5B689B09C3F30803BB60A5
:1002F000294B5B6803F03F037B60274B5B681B0C5B
:1003000003F0030301331A46012393403B60224B61
:100310009B6803F00C039B08002B05D11F4A7B69E7
:1003200092FBF3F33B6130E01B4B9B6803F00C0343
:100330009B08012B05D11A4A7B6992FBF3F33B61C1
:1003400023E0154B5B689B0D03F00103002B0ED1DE
:10035000BB68124A02FB03F27B68396801FB03F3B6
:10036000796901FB03F392FBF3F33B610DE07B68DA
:100370003A6802FB03F37A6902FB03F3084A92FB33
:10038000F3F3BA6802FB03F33B613B6918461C3781
:10039000BD465DF8047B7047003802400024F4003D
:1003A00000127A0080B485B000AF78600F4B9B6874
:1003B0001B0B03F00103002B0AD00C4B9B689B0A1C
:1003C00003F0030301331A4601239340FB6001E06D
:1003D0000123FB60FB687A68B2FBF3F3BB60BB6888
:1003E00018461437BD465DF8047B7047003802405C
:1003F00080B483B000AF0B4A0A4B1B6923F400138F
:100400001361084B1B697B60064A064B1B6B43F468
:1004100000131363034B1B6B7B600C37BD465DF809
:10042000047B70470038024080B400AF424A424B20
:10043000D3F8883023F06063C2F888303E4A3E4BE0
:10044000D3F8883043F06063C2F888303A4A3A4BB8
:10045000D3F8883023F0C073C2F88830364A364B60
:10046000D3F88830C2F88830334A334BD3F8883019
:1004700023F4C003C2F888302F4A2F4BD3F88830BA
:10048000C2F888302C4A2C4BD3F8883023F0200354
:10049000C2F88830284A284BD3F88830C2F8883010
:1004A000254A254BD3F8883023F01003C2F8883052
:1004B000214A214BD3F8883043F01003C2F888302A
:1004C0001D4A1D4BD3F8883023F00803C2F888304A
:1004D000194A194BD3F8883043F00803C2F8883022
:1004E000154A154BD3F8883023F00403C2F888303E
:1004F000114A114BD3F8883043F00403C2F8883016
:100500000D4A0D4BD3F8883023F00203C2F888302F
:10051000094A094BD3F8883043F00203C2F8883007
:10052000054BD3F89C30044B0022C3F89C20BD46F9
:100530005DF8047B704700BF0060024080B483B068
:1005400000AF084A074BD3F8883043F00103C2F8E4
:100550008830044BD3F888307B600C37BD465DF89B
:10056000047B70470060024080B400AF084A084B2B
:10057000D3F8883023F00103C2F88830044A044BD2
:10058000D3F88830C2F88830BD465DF8047B7047E8
:100590000060024080B485B000AF7860054A7B6897
:1005A000D360044BDB68FB601437BD465DF8047B09
:1005B000704700BF0060024080B483B000AF786035
:1005C0000A4A0A4BD3F8883023F48063C2F8883093
:1005D0000649064BD3F888307A6892021343C1F873
:1005E00088300C37BD465DF8047B704700600240E0
:1005F00080B483B000AF78600A4A0A4BD3F88830E1
:1006000023F40073C2F888300649064BD3F88830CB
:100610007A6852021343C1F888300C37BD465DF842
:10062000047B70470060024080B483B000AF786004
:100630000A4A0A4BD3F8883023F4C043C2F8883002
:100640000649064BD3F888307A6852031343C1F841
:1006500088300C37BD465DF8047B7047006002406F
:1006600080B483B000AF78600A4A0A4BD3F8883070
:1006700023F4C053C2F888300649064BD3F88830BB
:100680007A68D2021343C1F888300C37BD465DF852
:10069000047B70470060024080B485B000AF786092
:1006A000064A7B68C2F88C30044BD3F88C30FB6070
:1006B0001437BD465DF8047B704700BF0060024000
:1006C00080B584B000AF7860FFF74EFF054A7B68C5
:1006D000C2F89030034BD3F89030FB601037BD4622
:1006E00080BD00BF0060024080B584B000AF78607C
:1006F000FFF73AFF054A7B68C2F89430034BD3F802
:100700009430FB601037BD4680BD00BF00600240E2
:1007100080B584B000AF7860FFF726FF074BD3F8B1
:100720008830FB60054A7B68C2F89830034BD3F8E9
:100730009830FB601037BD4680BD00BF00600240AE
:1007400080B485B000AF78600C4A0C4BD3F8883089
:1007500023F0C003C2F888300849084BD3F888302A
:100760007A6892011343C1F88830044BD3F888307B
:10077000FB601437BD465DF8047B704700600240A3
:1007800080B485B000AF78600C4A0C4BD3F8883049
:1007900023F44033C2F888300849084BD3F8883036
:1007A0007A6812041343C1F88830044BD3F88830B8
:1007B000FB601437BD465DF8047B70470060024063
:1007C00080B483B000AF78600A4A0A4BD3F888300F
:1007D00023F48073C2F888300649064BD3F888307A
:1007E0007A6812021343C1F888300C37BD465DF8B1
:1007F000047B70470060024080B483B000AF786033
:100800000A4A0A4BD3F8883023F48023C2F8883090
:100810000649064BD3F888307A6892041343C1F82E
:1008200088300C37BD465DF8047B7047006002409D
:1008300080B582B000AF786039603868FFF7E6FCB9
:100840003B681B687A685200032101FA02F21A43DE
:100850003B681A603B68DB687A685200032101FA42
:1008600002F2D2431A403B68DA603B68DA683B68C0
:10087000DA600837BD4680BD80B584B000AFF8604F
:10088000B9607A607868FFF7C1FC7B681B68BA685A
:100890005200032101FA02F2D2431A407B681A6027
:1008A0007B681B68BA685200012101FA02F21A4300
:1008B0007B681A607B685B680121BA6801FA02F202
:1008C000D2431A407B685A607B689B68BA685200C2
:1008D000032101FA02F2D2431A407B689A607B68D6
:1008E0009B68BA685200F96801FA02F21A437B6801
:1008F0009A601037BD4680BD80B483B000AF034618
:100900003960FB80FB88012202FA03F31A463B6838
:100910009A610C37BD465DF8047B704780B483B0A4
:1009200000AF03463960FB80FB881033012202FAD6
:1009300003F31A463B689A610C37BD465DF8047BA9
:10094000704700BF0000000080B500AFFFF78AFCD1
:100950000120082100F0B4FC0220082100F008FD6D
:10096000012000F021FC012000F03AFC01200021D0
:1009700000F052FC0120002100F078FC002000F083
:100980006BFD002000F080FD012000F0D5FB012070
:1009900000F0EEFB80BD00BF80B500AF0420094928
:1009A000FFF746FF05200749FFF742FF0320042118
:1009B000044AFFF761FF03200521024AFFF75CFFAD
:1009C00080BD00BF0000024080B500AFFFF75EFCB5
:1009D000012000F00BFB002000F01EFB022000F0C5
:1009E00077FB80BD80B483B000AF786002E07B68A5
:1009F000013B7B607B68002BF9D10C37BD465DF86D
:100A0000047B704780B500AFFFF7F2FCFFF70CFDE9
:100A10004FF47460FFF7BEFD0120FFF7CDFD00200D
:100A2000FFF7E6FD0120FFF7FFFD0120FFF718FEAD
:100A30000120FFF785FE0320FFF7A2FE0020FFF74D
:100A4000BFFE0120FFF7D8FEFFF78EFD80BD00BF7F
:100A500080B5ADF5B66D00AFFFF79EFFFFF774FFF1
:100A6000FFF7B2FF0023C7F8A83500F0EBFA002328
:100A7000C7F8A8354AE0D7F8A80500F05FFE02469F
:100A80000B461046194626A3D3E9002300F0CCFEFE
:100A900002460B461046194601F052FA02460B4632
:100AA0001046194620A3D3E9002300F0BDFE0246FC
:100AB0000B461046194601F051F90346C7F8A43514
:100AC000D7F8A435C3F50063C7F8A435D7F8A43523
:100AD000DA0F13445B1019463B1DD7F8A82543F8DD
:100AE0002210D7F8AC350A33C7F8AC3510493B1D96
:100AF000D7F8A82553F822304B610D4AD7F8AC350A
:100B00009360D7F8A8350133C7F8A835D7F8A835CA
:100B1000B3F5B47FAFD307F5B667BD4680BD00BF60
:100B200011E7FAA146DF913F0000000000FC9F4062
:100B30000074004080B582B000AFFFF72DFFFFF7D3
:100B400003FF00237B6000233B6000233B600EE03B
:100B50007B680A337B60094A7B689360074A7B683D
:100B6000D3610120FFF73EFF3B6801333B603B68E8
:100B7000B3F5B47FECD30837BD4680BD00740040A8
:100B800080B483B000AF044B5B687B600C37BD461C
:100B90005DF8047B704700BF0060024080B5ADF691
:100BA000780D00AFFFF7F8FEFFF7CEFEFFF70CFF62
:100BB0000023C7F87438A9E0D7F8740800F0CEFD18
:100BC00002460B461046194661A3D3E9002300F004
:100BD0002BFE02460B461046194601F0B1F90246BB
:100BE0000B46104619465CA3D3E9002300F01CFE17
:100BF00002460B461046194601F0B0F8034699B27A
:100C000007F2A453D7F8742823F8121007F2A4535C
:100C1000D7F8742833F812309BB2C3F500639BB247
:100C200099B207F2A453D7F8742823F81210D7F812
:100C3000740800F093FD02460B461046194644A383
:100C4000D3E9002300F0F0FD02460B46104619469A
:100C500001F0BAF902460B46104619463EA3D3E905
:100C6000002300F0E1FD02460B461046194601F054
:100C700075F8034699B207F53573D7F8742823F849
:100C8000121007F53573D7F8742833F812309BB279
:100C9000C3F500639BB299B207F53573D7F8742892
:100CA00023F81210D7F87438B32B0FDCD7F8743848
:100CB00014339BB21A46920013445B009BB299B264
:100CC0003B1DD7F8742823F812101AE0D7F87438AF
:100CD000A3F1B4023B1D33F812103B1DD7F8742862
:100CE00023F812103B1DD7F8742833F812309BB24A
:100CF000C3F5FA639BB299B23B1DD7F8742823F869
:100D00001210D7F874380133C7F87438D7F874382C
:100D1000B3F5B47FFFF650AFFFF774FED7F8740851
:100D2000FFF7BAFC0E48FFF7CBFC07F2A4531846B6
:100D3000FFF7DAFC3B1D1846FFF7EAFC00F082F9EA
:100D4000FFF7FCFB07F67807BD4680BDAFF30080D8
:100D500011E7FAA146DF913F0000000000FC9F4030
:100D60000874004080B500AFFFF772FEFCE700BFDB
:100D700080B500AF114A114B1B6843F001031360AB
:100D80000E4B00229A600D4A0C4B1B6823F08473B3
:100D900023F480331360094B094A5A60074A074B12
:100DA0001B6823F480231360044B0022DA6000F0F8
:100DB00087F8044B4FF000629A6080BD0038024013
:100DC0001030002400ED00E080B487B000AF0023B5
:100DD0003B6100237B610223FB600023BB60022395
:100DE0007B60324B9B6803F00C033B613B69042B37
:100DF00007D0082B09D0002B3FD12D4B2D4A1A606C
:100E00003FE02B4B2C4A1A603BE0284B5B6803F415
:100E100080039B0DBB60254B5B6803F03F037B6049
:100E2000BB68002B0DD0244A7B68B2FBF3F21F4B4A
:100E3000596847F6C0730B409B0903FB02F37B61C3
:100E40000CE01C4A7B68B2FBF3F2184B596847F67A
:100E5000C0730B409B0903FB02F37B61134B5B6880
:100E600003F440331B0C01335B00FB607A69FB68C1
:100E7000B2FBF3F30E4A136003E00D4B0D4A1A6008
:100E800000BF0A4B9B6803F0F0031B090B4AD35CBD
:100E9000DBB23B61064B1A683B6922FA03F3044A52
:100EA00013601C37BD465DF8047B70470038024074
:100EB000000000200024F40000127A00040000204A
:100EC00080B483B000AF00237B6000233B60434AC3
:100ED000424B1B6843F480331360404B1B6803F4A0
:100EE00000333B607B6801337B603B68002B04D19F
:100EF0007B6841F288329342EFD1384B1B6803F490
:100F00000033002B02D001233B6001E000233B6053
:100F10003B68012B5CD1314A304B1B6C43F0805352
:100F200013642F4A2E4B1B6843F4404313602B4A33
:100F30002A4B9B689360294A284B9B6843F40043E3
:100F40009360264A254B9B6843F4A0539360234B40
:100F5000244A5A60214A214B1B6843F08073136076
:100F600000BF1E4B1B6803F00073002BF9D01C4A16
:100F70001B4B1B6843F48033136000BF184B5B6846
:100F800003F48033002BF9D0154A154B1B6843F44A
:100F90000033136000BF124B5B6803F40033002B77
:100FA000F9D0114B40F205721A600C4A0B4B9B684A
:100FB00023F003039360094A084B9B6843F0020344
:100FC000936000BF054B9B6803F00C03082BF9D11D
:100FD0000C37BD465DF8047B704700BF0038024007
:100FE00000700040085A4007003C024080B483B0C3
:100FF00000AF78607B68B3F5803F03DB054B4FF6AD
:10100000FF72DA62034A7B68D3620C37BD465DF833
:10101000047B70470010004080B483B000AF78605C
:101020007B68B3F5803F03DB054B4FF6FF729A6296
:10103000034A7B6893620C37BD465DF8047B7047BA
:101040000010004080B400AF044A044B1B6843F01A
:1010500001031360BD465DF8047B7047001000403B
:1010600080B400AF044A044B1B6823F002031360F2
:10107000BD465DF8047B70470010004080B400AFAF
:10108000044A044B1B6843F002031360BD465DF83D
:10109000047B70470010004080B483B000AF7860DC
:1010A0007B68002B06D0094A084B1B6843F00403F9
:1010B000136005E0054A054B1B6823F00403136029
:1010C0000C37BD465DF8047B704700BF0010004040
:1010D00080B483B000AF7860084A084B5B6823F0A7
:1010E000700353600549054B5B687A68120113432E
:1010F0004B600C37BD465DF8047B70470010004024
:1011000080B400AF044A044B5B6943F001035361B0
:10111000BD465DF8047B70470010004080B400AF0E
:10112000044A044B1B6843F008031360BD465DF896
:10113000047B70470010004080B483B000AF78603B
:101140007B68002B06D0094A084B1B6843F001035B
:10115000136005E0054A054B1B6823F0010313608B
:101160000C37BD465DF8047B704700BF007400403B
:1011700080B483B000AF78607B68002B06D0094A4A
:10118000084B1B6843F48033136005E0054A054BA8
:101190001B6823F4803313600C37BD465DF8047B75
:1011A000704700BF0074004080B483B000AF786027
:1011B0007B68002B06D0094A084B1B6823F002030A
:1011C000136005E0054A054B1B6843F002031360FA
:1011D0000C37BD465DF8047B704700BF00740040CB
:1011E00080B483B000AF78607B68002B06D0094ADA
:1011F000084B1B6823F40033136005E0054A054BD8
:101200001B6843F4003313600C37BD465DF8047B64
:10121000704700BF0074004080B483B000AF7860B6
:1012200039607B68002B13D00F4A0F4B1B6843F0CB
:10123000040313600C4A0C4B1B6823F03803136043
:101240000949094B1B683A68D20013430B6005E05B
:10125000054A054B1B6823F0040313600C37BD4699
:101260005DF8047B704700BF0074004080B483B019
:1012700000AF786039607B68002B13D00F4A0F4BAA
:101280001B6843F4802313600C4A0C4B1B6823F447
:10129000601313600949094B1B683A68D204134371
:1012A0000B6005E0054A054B1B6823F4802313609F
:1012B0000C37BD465DF8047B704700BF00740040EA
:1012C00080B483B000AF786039607B68002B0DD1AB
:1012D000264A264B1B6823F0C00313602349234B87
:1012E0001B687A68920113430B603AE07B68012B1C
:1012F0001AD11E4A1D4B1B6823F0C00313601B4903
:101300001A4B1B687A68920113430B60174A174BFC
:101310001B6823F4706313601449144B1B683A680C
:10132000120213430B601CE07B68022B19D10F4A99
:101330000E4B1B6823F0C00313600C490B4B1B685A
:101340007A68920113430B60084A084B1B6823F428
:10135000706313600549054B1B683A68120213431A
:101360000B600C37BD465DF8047B7047007400408D
:1013700080B483B000AF786039607B68002B0DD1FA
:10138000264A264B1B6823F4400313602349234B52
:101390001B687A68920513430B603AE07B68012B67
:1013A0001AD11E4A1D4B1B6823F4400313601B49CE
:1013B0001A4B1B687A68920513430B60174A174B48
:1013C0001B6823F0706313601449144B1B683A6860
:1013D000120613430B601CE07B68022B19D10F4AE5
:1013E0000E4B1B6823F4400313600C490B4B1B6826
:1013F0007A68920513430B60084A084B1B6823F078
:10140000706313600549054B1B683A681206134365
:101410000B600C37BD465DF8047B704700740040DC
:1014200080B400AF044A044B5B6843F0010353608F
:10143000BD465DF8047B70470074004080B400AF87
:10144000044A044B5B6843F002035360BD465DF8F9
:10145000047B70470074004080B483B000AF7860B4
:10146000084A084B1B6823F4805313600549054B59
:101470001B687A68120313430B600C37BD465DF896
:10148000047B70470074004080B483B000AF786084
:10149000084A084B1B6823F0805313600549054B2D
:1014A0001B687A68120713430B600C37BD465DF862
:1014B000047B70470074004081F0004102E000BFEF
:1014C00083F0004330B54FEA41044FEA430594EA04
:1014D000050F08BF90EA020F1FBF54EA000C55EA3F
:1014E000020C7FEA645C7FEA655C00F0E2804FEA10
:1014F0005454D4EB5555B8BF6D420CDD2C4480EAF2
:10150000020281EA030382EA000083EA010180EA21
:10151000020281EA0303362D88BF30BD11F0004F6F
:101520004FEA01314FF4801C4CEA113102D04042A5
:1015300061EB410113F0004F4FEA03334CEA1333E0
:1015400002D0524263EB430394EA050F00F0A780F8
:10155000A4F10104D5F1200E0DDB02FA0EFC22FAF3
:1015600005F2801841F1000103FA0EF2801843FAE7
:1015700005F359410EE0A5F120050EF1200E012AD8
:1015800003FA0EFC28BF4CF0020C43FA05F3C01816
:1015900051EBE37101F0004507D54FF0000EDCF18F
:1015A000000C7EEB00006EEB0101B1F5801F1BD338
:1015B000B1F5001F0CD349085FEA30004FEA3C0C3C
:1015C00004F101044FEA445212F5800F80F09A8032
:1015D000BCF1004F08BF5FEA500C50F1000041EB36
:1015E000045141EA050130BD5FEA4C0C404141EB3A
:1015F000010111F4801FA4F10104E9D191F0000F61
:1016000004BF01460020B1FA81F308BF2033A3F1E3
:101610000B03B3F120020CDA0C3208DD02F1140CDA
:10162000C2F10C0201FA0CF021FA02F10CE002F115
:101630001402D8BFC2F1200C01FA02F120FA0CFC0E
:10164000DCBF41EA0C019040E41AA2BF01EB045157
:10165000294330BD6FEA04041F3C1CDA0C340EDC55
:1016600004F11404C4F1200220FA04F001FA02F398
:1016700040EA030021FA04F345EA030130BDC4F156
:101680000C04C4F1200220FA02F001FA04F340EA4B
:101690000300294630BD21FA04F0294630BD94F0FC
:1016A000000F83F4801306BF81F480110134013DE3
:1016B0004EE77FEA645C18BF7FEA655C29D094EA54
:1016C000050F08BF90EA020F05D054EA000C04BFD2
:1016D0001946104630BD91EA030F1EBF00210020BD
:1016E00030BD5FEA545C05D14000494128BF41F05C
:1016F000004130BD14F580043CBF01F5801130BDC0
:1017000001F0004545F0FE4141F470014FF000004A
:1017100030BD7FEA645C1ABF194610467FEA655CFB
:101720001CBF0B46024650EA013406BF52EA03359D
:1017300091EA030F41F4002130BD00BF90F0000F8B
:1017400004BF0021704730B54FF4806404F13204C7
:101750004FF000054FF0000150E700BF90F0000F80
:1017600004BF0021704730B54FF4806404F13204A7
:1017700010F0004548BF40424FF000013EE700BF77
:1017800042004FEAE2014FEA31014FEA02701FBF07
:1017900012F07F4393F07F4F81F06051704792F0D9
:1017A000000F14BF93F07F4F704730B54FF4607453
:1017B00001F0004521F0004120E700BF50EA01029E
:1017C00008BF704730B54FF000050AE050EA01024B
:1017D00008BF704730B511F0004502D5404261EBBB
:1017E00041014FF4806404F132045FEA915C3FF4FC
:1017F000DCAE4FF003025FEADC0C18BF03325FEA95
:10180000DC0C18BF033202EBDC02C2F1200300FA49
:1018100003FC20FA02F001FA03FE40EA0E0021FA6E
:1018200002F11444C1E600BF70B54FF0FF0C4CF458
:10183000E06C1CEA11541DBF1CEA135594EA0C0F0E
:1018400095EA0C0F00F0DEF82C4481EA030621EA49
:101850004C5123EA4C5350EA013518BF52EA033584
:1018600041F4801143F4801338D0A0FB02CE4FF036
:101870000005E1FB02E506F00042E0FB03E54FF066
:101880000006E1FB03569CF0000F18BF4EF0010E5E
:10189000A4F1FF04B6F5007F64F5407404D25FEA5A
:1018A0004E0E6D4146EB060642EAC62141EA55510D
:1018B0004FEAC52040EA5E504FEACE2EB4F1FD0C4F
:1018C00088BFBCF5E06F1ED8BEF1004F08BF5FEACD
:1018D000500E50F1000041EB045170BD06F000467F
:1018E00046EA010140EA020081EA0301B4EB5C042C
:1018F000C2BFD4EB0C0541EA045170BD41F4801124
:101900004FF0000E013C00F3AB8014F1360FDEBF48
:10191000002001F0004170BDC4F10004203C35DA24
:101920000C341BDC04F11404C4F1200500FA05F3A7
:1019300020FA04F001FA05F240EA020001F0004248
:1019400021F0004110EBD37021FA04F642EB0601BE
:101950005EEA430E08BF20EAD37070BDC4F10C04E8
:10196000C4F1200500FA04F320FA05F001FA04F2AC
:1019700040EA020001F0004110EBD37041F1000198
:101980005EEA430E08BF20EAD37070BDC4F12005A3
:1019900000FA05F24EEA020E20FA04F301FA05F20B
:1019A00043EA020321FA04F001F0004121FA04F2B3
:1019B00020EA020000EBD3705EEA430E08BF20EA83
:1019C000D37070BD94F0000F0FD101F000464000BD
:1019D00041EB010111F4801F08BF013CF7D041EA3F
:1019E000060195F0000F18BF704703F00046520043
:1019F00043EB030313F4801F08BF013DF7D043EA14
:101A00000603704794EA0C0F0CEA135518BF95EAC9
:101A10000C0F0CD050EA410618BF52EA4306D1D150
:101A200081EA030101F000414FF0000070BD50EA6F
:101A3000410606BF1046194652EA430619D094EAF9
:101A40000C0F02D150EA013613D195EA0C0F05D1E3
:101A500052EA03361CBF104619460AD181EA030137
:101A600001F0004141F0FE4141F470014FF00000EF
:101A700070BD41F0FE4141F4780170BD70B54FF08A
:101A8000FF0C4CF4E06C1CEA11541DBF1CEA13550A
:101A900094EA0C0F95EA0C0F00F0A7F8A4EB0504EC
:101AA00081EA030E52EA03354FEA013100F08880E3
:101AB0004FEA03334FF0805545EA131343EA1263AC
:101AC0004FEA022245EA111545EA10654FEA002661
:101AD0000EF000419D4208BF964244F1FD0404F51A
:101AE000407402D25B084FEA3202B61A65EB030576
:101AF0005B084FEA32024FF480104FF4002CB6EB33
:101B0000020E75EB030E22BFB61A754640EA0C00B2
:101B10005B084FEA3202B6EB020E75EB030E22BFF2
:101B2000B61A754640EA5C005B084FEA3202B6EB33
:101B3000020E75EB030E22BFB61A754640EA9C00F2
:101B40005B084FEA3202B6EB020E75EB030E22BFC2
:101B5000B61A754640EADC0055EA060E18D04FEA80
:101B6000051545EA16754FEA06164FEAC30343EA20
:101B700052734FEAC2025FEA1C1CC0D111F4801FED
:101B80000BD141EA00014FF000004FF0004CB6E7E6
:101B900011F4801F04BF01430020B4F1FD0C88BF85
:101BA000BCF5E06F3FF6AFAEB5EB030C04BFB6EB90
:101BB000020C5FEA500C50F1000041EB045170BD83
:101BC0000EF0004E4EEA113114EB5C04C2BFD4EBB0
:101BD0000C0541EA045170BD41F480114FF0000E34
:101BE000013C90E645EA060E8DE60CEA135594EAB0
:101BF0000C0F08BF95EA0C0F3FF43BAF94EA0C0FB3
:101C00000AD150EA01347FF434AF95EA0C0F7FF427
:101C100025AF104619462CE795EA0C0F06D152EA7B
:101C200003353FF4FDAE1046194622E750EA41065F
:101C300018BF52EA43067FF4C5AE50EA41047FF470
:101C40000DAF52EA43057FF4EBAE12E74FF0FF3CD5
:101C500006E000BF4FF0010C02E000BF4FF0010CA6
:101C60004DF804CD4FEA410C7FEA6C5C4FEA430C1F
:101C700018BF7FEA6C5C1BD001B050EA410C0CBF6E
:101C800052EA430C91EA030F02BF90EA020F0020D0
:101C9000704710F1000F91EA030F58BF994208BF37
:101CA00090422CBFD8176FEAE37040F001007047F4
:101CB0004FEA410C7FEA6C5C02D150EA013C07D14B
:101CC0004FEA430C7FEA6C5CD6D152EA033CD3D096
:101CD0005DF8040B704700BF8446104662468C4690
:101CE0001946634600E000BF01B5FFF7B7FF0028C3
:101CF00048BF10F1000F01BD4DF808EDFFF7F4FFEC
:101D00000CBF012000205DF808FB00BF4DF808ED76
:101D1000FFF7EAFF34BF012000205DF808FB00BF99
:101D20004DF808EDFFF7E0FF94BF012000205DF8BB
:101D300008FB00BF4DF808EDFFF7CEFF94BF012070
:101D400000205DF808FB00BF4DF808EDFFF7C4FF69
:101D500034BF012000205DF808FB00BF4FEA4102BC
:101D600012F5001215D211D56FF47873B3EB6252ED
:101D700012D94FEAC12343F0004343EA505311F014
:101D8000004F23FA02F018BF404270474FF00000A6
:101D9000704750EA013005D111F0004008BF6FF0E4
:101DA000004070474FF00000704700BF70B50F4E05
:101DB0000F4D761BB61018BF002405D0013455F81E
:101DC000043B9847A642F9D10A4E0B4D761B01F011
:101DD00067FAB61018BF002406D0013455F8043B4A
:101DE0009847A642F9D170BD70BD00BF9834000875
:101DF00098340008A034000898340008024B13B14E
:101E0000024800F005B87047000000001D1E0008E1
:101E1000014600200246034600F016B838B5084BCC
:101E2000084DED1AAC1018BFED1805D0013C55F85F
:101E3000043D9847002CF9D1BDE8384001F036BA8E
:101E4000A0340008A43400082DE9F047254C25688B
:101E5000D5F848410646884692469946CCB3606814
:101E60001F2818DC431C7EB104EB80050121C5F856
:101E700088A0D4F8887101FA00F21743022EC4F842
:101E80008871C5F808911ED00230636044F8208044
:101E90000020BDE8F087144B03B34FF4C870AFF3D4
:101EA00000800446D0B1D5F84831002780E888008A
:101EB000C5F8484138460123C4F88871C4F88C71CC
:101EC000002EE1D0D0E7D4F88C110A43C4F88C215D
:101ED000DAE705F5A674C5F84841C0E74FF0FF30D2
:101EE000BDE8F087BC32000800000000DFF834D005
:101EF000002103E00C4B5B58435004310B480C4B62
:101F000042189A42F6D30B4A02E0002342F8043BFF
:101F1000094B9A42F9D3FEF72BFFFFF747FFFEF775
:101F200021FF7047FFFF0220A434000800000020BA
:101F300040040020400400205C040020FEE7000074
:101F400030B51F4A21F00043934287B01BDD1D4A84
:101F5000934205DD02460B46FFF7B2FA07B030BDEB
:101F600002AA00F07DF800F00303012BDDE9020175
:101F700016D0022B0DD0EBB10124DDE9042300942F
:101F800000F0BAFFEAE70022002300F08DFA07B064
:101F900030BDDDE9042300F087FA01F10041DDE7FF
:101FA000DDE90445009322462B4600F0A5FF01F130
:101FB0000041D3E7DDE9042300F076FACEE700BF65
:101FC000FB21E93FFFFFEF7F30B5224A21F00043BC
:101FD000934287B01BDD204A934205DD02460B4643
:101FE000FFF76EFA07B030BD02AA00F039F800F032
:101FF000030001281ED0022811D010B3DDE9020130
:10200000DDE9042300F050FA01F10041EAE7002382
:1020100000930022002300F06FFF07B030BD0124C1
:10202000DDE90201DDE90423009400F065FF01F120
:102030000041D7E7DDE90201DDE9042300F034FACD
:10204000D0E70124DDE90201DDE90423009400F07A
:1020500053FFC7E7FB21E93FFFFFEF7F00000000D0
:102060002DE9F04F964E21F0004BB3458FB00C4652
:1020700040F381809246934A934526DC002986A34B
:10208000D3E9002340F3A881FFF71AFA8E4B9B4552
:1020900004460D4600F0848081A3D3E90023FFF7B6
:1020A0000FFA02460B46CAE9002320462946FFF7ED
:1020B00007FA7BA3D3E90023FFF702FA0125CAE957
:1020C000020128460FB0BDE8F08F804A934540F3E7
:1020D00084807F4A934559DC4FEA2B55A5F216457B
:1020E000ABEB055739460646FFF738FEFFF736FBE0
:1020F0008046894602460B4630463946CDE9088976
:10210000FFF7DEF90022734BFFF78EFB0F46064602
:10211000FFF724FEFFF722FB02460B468046894666
:1021200030463946CDE90A89FFF7CAF90022694BE2
:10213000FFF77AFB00220023CDE90C01FFF7DCFD5D
:10214000002800F075810023404649460022FFF731
:10215000D3FD002814BF0123022302225E4900920E
:1021600001912A4608A8514600F0C2FA002CC0F29C
:102170005181054606E0C2E9000100250024C2E9BC
:102180000245002528460FB0BDE8F08F02460B46F9
:10219000FFF796F90025CAE90201CAE90001F1E753
:1021A00041A3D3E90023FFF78BF941A3D3E900232F
:1021B0000D460446FFF784F902460B46CAE90023A0
:1021C00029462046FFF77CF939A3D3E90023FFF71E
:1021D00077F90125CAE90201D4E700F045FF36A3EB
:1021E000D3E9002306460F46FFF71EFB00223B4BB8
:1021F000FFF768F9FFF7B2FD0546FFF7AFFA26A330
:10220000D3E90023CDE90401FFF70EFB02460B469C
:1022100030463946FFF754F921A3D3E9002380461D
:102220008946DDE90401FFF7FFFA1F2DCDE9020120
:102230004046494656DC2A4B6A1E53F822305B451D
:1022400050D0DDE90223FFF73BF902460B46CAE90D
:10225000002307460E463A46334640464946FFF7B6
:102260002FF9DDE90223FFF72BF9002C02460B467C
:10227000CAE9022386DA06F1004601F10041CAF8F4
:102280000070CAF80460CAF80C10CAF808006D4261
:1022900078E700BFAFF3008000004054FB21F93F16
:1022A0003163621A61B4D03D0000601A61B4D03D60
:1022B0007370032E8A19A33B83C8C96D305FE43F56
:1022C000FB21E93F7BD90240FB21F93FFB2139414A
:1022D000FFFFEF7F00007041403300080000E03F47
:1022E000C0320008DDE90223FFF7EAF80E464FEAA4
:1022F0002B5BC6F30A53C3EB0B03102B0746CAE94B
:102300000001A8DD5CA3D3E90023DDE90401FFF7A8
:102310008BFA06460F4632463B4640464946FFF793
:10232000CFF8CDE90601DDE9062340464946FFF72F
:10233000C7F832463B46FFF7C3F851A3D3E9002361
:1023400006460F46DDE90401FFF76EFA32463B46CA
:10235000FFF7B6F8CDE90201DDE90223DDE9060168
:10236000FFF7AEF80E46C1F30A51C1EB0B0B024664
:102370003346BBF1310F0746CAE9002378DD42A39B
:10238000D3E90023DDE90401FFF74EFA06460F46C4
:1023900032463B46DDE90601FFF792F88046894662
:1023A00042464B46DDE90601FFF78AF832463B46D6
:1023B000FFF786F836A3D3E9002306460F46DDE98A
:1023C0000401FFF731FA32463B46FFF779F8CDE9D1
:1023D00002014046494634E7FFF774F8304B9B450D
:1023E00004460D4626D02CA3D3E90023FFF76AF854
:1023F00002460B46CAE9002329462046FFF760F84B
:1024000025A3D3E90023FFF75DF84FF0FF35CAE9B4
:102410000201B7E6DAF80420DAF80C3002F10042E3
:1024200003F100434542CAF80420CAF80C30A9E67B
:10243000032392E610A3D3E90023FFF743F810A388
:10244000D3E900230D460446FFF73CF802460B464D
:10245000CAE9002329462046FFF732F808A3D3E94A
:102460000023FFF72FF84FF0FF35CAE9020189E694
:10247000DDE90689EFE600BF0000601A61B4D03DD7
:102480007370032E8A19A33B0000002E8A19A33B08
:10249000C14920259A837B393163621A61B4D03DEA
:1024A000FB21F93FAFF300802DE9F04F21F0004709
:1024B000B7F1795F85B00C4692469B4605466BDACC
:1024C000FFF74CFC002800F0E8802A462346284607
:1024D0002146FFF7A9F974A3D3E900238046894672
:1024E000FFF7A2F972A3D3E90023FEF7EBFF424600
:1024F0004B46FFF799F970A3D3E90023FEF7E0FFFD
:1025000042464B46FFF790F96DA3D3E90023FEF74F
:10251000D9FF42464B46FFF787F96BA3D3E9002367
:10252000FEF7CEFF42464B46FFF77EF968A3D3E99C
:102530000023FEF7C7FF42464B46FFF775F9CDE98A
:102540000001404649460022634BFFF76DF9DDE983
:10255000002306460F4640464946FFF765F95246B6
:10256000804689465B4628462146FFF75DF90246CC
:102570000B4640464946FEF7A3FF02460B4630464F
:102580003946FEF79DFF02460B4600205349FEF7F1
:1025900097FF05B0BDE8F08F02460B46FFF744F900
:1025A00041A3D3E9002380468946FFF73DF940A3C4
:1025B000D3E90023FEF786FF42464B46FFF734F986
:1025C0003DA3D3E90023FEF77BFF42464B46FFF7CE
:1025D0002BF93BA3D3E90023FEF774FF42464B4699
:1025E000FFF722F938A3D3E90023FEF769FF42463B
:1025F0004B46FFF719F936A3D3E90023FEF762FF34
:102600004B464246FFF710F9354B9F42CDE900019A
:1026100097DD344B9F424FF0000238DCA7F50013E2
:1026200000202E4916461F46FEF74AFFCDE902015B
:10263000404649460022284BFFF7F6F832463B4613
:10264000FEF73EFFDDE9002306460F4640464946B9
:10265000FFF7EAF85246804689465B4628462146FF
:10266000FFF7E2F802460B4640464946FEF728FFD0
:1026700002460B4630463946FEF722FF02460B461D
:10268000DDE90201FEF71CFF05B0BDE8F08F164B37
:10269000164FCDE902230026CAE71049002005B0F5
:1026A000BDE8F08FAFF30080D43888BEE9FAA8BD4A
:1026B000C4B1B4BD9EEE213EAD529C804F7E923E91
:1026C0009015CB19A001FA3E7751C1166CC1563F47
:1026D0004C5555555555A53F0000E03F0000F03FD3
:1026E0003233D33F0000E93F0000E73F0000D23F14
:1026F0002DE9F04FADF51D7D7B4CA69E7B4D54F82A
:10270000264009942646D41E85FB0475E417C4EBC5
:10271000A50424EAE4741D460C93E34303EB43034E
:10272000013D02EBC30308932B460D940395651BF3
:102730009C1904900A9116D42C44013422AEA79F10
:1027400008E057F82500FFF709F80135A542E6E94A
:10275000020108D0002DF4DA013500200021A54245
:10276000E6E90201F6D1099B002B31DB099A0C9BAB
:1027700074A901EBC20BC3EB4373039A24A9DB00DA
:1027800001EBC20800930DF5E479039B002BC0F226
:102790009981049BA3F1080A009B444608EB0305BA
:1027A00000260027FAE9022374E80201FFF73CF84B
:1027B00002460B4630463946FEF784FEAC420646DA
:1027C0000F46EFD1E9E90267D94508F10808DCD1E5
:1027D000099901F18043013B9B001A1D10A8024496
:1027E00003440F920E938B464FEACB039CA91A46E3
:1027F0000693BBF1000F0B4453E9284528DD0DF586
:10280000E87A0AEB02060FAF0022394B2046294630
:10281000FFF70AF8FFF7A2FAFEF7A0FF0022354BF8
:1028200080468946FFF700F802460B4620462946B7
:10283000FEF746FEFFF792FA76E9022347F8040F07
:1028400049464046FEF73EFE564504460D46DBD15E
:10285000DDF82090204629464A4600F095FC0022EB
:102860004FF07F5304460D46FEF7DEFF00F000FCFC
:102870000022214BFEF7D8FF02460B462046294690
:10288000FEF71EFE04460D46FFF768FA8046FEF787
:1028900065FF02460B4620462946FEF711FE4C46D0
:1028A000002C06460F4640F3F3800BF1FF3110ABCE
:1028B000C9F1180253F8213043FA02F000FA02F588
:1028C00010AA5D1BC9F1170342F8215080441D4135
:1028D000002D3EDDBBF1000F08F1010840F38A82B4
:1028E000002214460FA911E048340008ABAAAA2A16
:1028F0000000703E0000704100002040C3F1807075
:102900000BB108600124013293450DDD51F8043FFD
:10291000002CF3D0C3F1FF13013203F57F4393453D
:102920000B604FF00104F1DC089B002B0EDD012B46
:1029300000F0B680022B09D10BF1FF3210AB10A9C9
:1029400053F82230C3F3150341F82230022D00F072
:1029500086803046394600220023FFF7CDF9002853
:1029600000F0CC80099B0BF1FF3A53450DDC10AB16
:102970000F9803EB8B03002253F8041D834242EAB5
:102980000102F9D1002A40F01B82099B10AA013BE9
:1029900052F82330002B40F02B820E9A012352F87C
:1029A000041D01330029FAD05B441A460B930BF146
:1029B000010393424DDC0D9A03EB02090B9A0C9B29
:1029C00009F180495B44CBEB020BA79A09F1FF396F
:1029D00002EB890200924FEACB02DB00059224AAA7
:1029E00002EB030B0793069B74AA02EB030A4FF05A
:1029F0000008009B53F8040F0093FEF7AFFE039B03
:102A0000002BEBE8020127DB079B03EB0804069B86
:102A100008EB030524AB1C441D44049B0026A3F1D2
:102A200008090027F9E9022374E80201FEF7FCFE19
:102A300002460B4630463946FEF744FDAC42064698
:102A40000F46EFD1059B08F108089845EAE90267AF
:102A5000CFD1DDF82CB0C7E600260027F2E73246DA
:102A60003B460020C049FEF72BFD06460F46002CD2
:102A70003FF46FAF089ABC49002000F085FB024686
:102A80000B4630463946FEF71BFD06460F4660E70B
:102A900011D10BF1FF3310AA52F82350ED1517E7AF
:102AA0000BF1FF3210AB10A953F82230C3F3160319
:102AB00041F822304AE70022AC4BFFF73BF958B906
:102AC000054646E700260027E9E90267D94508F1EF
:102AD00008087FF45AAE7BE6BBF1000F08F101084D
:102AE000C8BF02253FF7FCAE32463B4600209E4958
:102AF000FEF7E6FC022506460F462AE7089B0395EB
:102B00005A4230463946CDF8148000F03DFB002291
:102B1000974B04460D46FFF70DF9002800F0E381BE
:102B20000022944B20462946FEF77EFEFFF716F959
:102B30000646FEF713FE00228D4BFEF775FE0B4690
:102B4000024629462046FEF7BBFCFFF707F9089B23
:102B500018330BF1010A089310AB43F82B0043F82C
:102B60002A60089A8049002000F00EFBBAF1000F9D
:102B700004460D46C0F2CD800AF101034FEAC308B6
:102B800074AF10AA009302EB830907EB080659F80B
:102B9000040DFEF7E3FD22462B46FEF745FE00221C
:102BA00066E90201734B20462946FEF73DFEBE4210
:102BB00004460D46EBD1A8F1080806EB08030DF515
:102BC0009879CDF818A0DDF824A0CDF810904FF03A
:102BD00000089B46BAF1000FC0F29880B8F1000FD0
:102BE000C0F29480DFF890915D4600260027002413
:102BF00001E0444510DCF9E90223F5E80201FEF7A3
:102C000013FE02460B4630463946FEF75BFC0134A4
:102C1000A24506460F46ECDA049B03EBC803C3E962
:102C20000067009B08F101089845ABF1080BD1D172
:102C3000A69BDDF818A0DDF81090032B3DD8DFE847
:102C400013F0430004000400DB00009B002409EBA8
:102C5000C30625462046294676E90223FEF732FCC4
:102C60004E4504460D46F5D1039B002B00F08E80A7
:102C70000A982B4605F10045224680E83000D9E944
:102C80000001FEF71DFCBAF1000F02460B460DDDF8
:102C9000012410461946F9E90223FEF713FC01341A
:102CA000A24502460B46F4DA039909B103F1004349
:102CB00019460A9B1046C3E90201059B03F0070071
:102CC0000DF51D7DBDE8F08F009B002209EBC309C7
:102CD00013461046194679E90223FEF7F3FB0AF181
:102CE000FF3ABAF1FF3F02460B46F2D1039909B110
:102CF00003F1004319460A9B1046C3E90001059BF6
:102D000003F007000DF51D7DBDE8F08F00260027BC
:102D100082E7A69B032BD0D8DFE803F04F303002C8
:102D20000DF59879039B00273E46002B00F0C780E5
:102D3000D9F80C300A9DD9F80400D9F80020D9F848
:102D400008102F6103F10043EB60059B2A6000F13E
:102D5000004006F10046686003F007006E61A9605C
:102D60000DF51D7DBDE8F08F0000F03F0000E03F55
:102D7000000070410000703E50340008039B0024A6
:102D800025460DF59879002B7FF472AF2046224638
:102D90000A9C29462B46C4E90001D9E90001FEF747
:102DA0008FFBBAF1000F02460B463FF771AF194691
:102DB0000A9B1046C3E902017FE70022134695E70C
:102DC00010AB089A53F82A300395183ACDF81480BE
:102DD0000892002B7FF4C5AE10AB03EB8A0353F8C7
:102DE000041D0AF1FF3A183A0029F8D00892B8E613
:102DF0000123D9E5002497E5BAF1000F92DD4FEAEF
:102E0000CA0809EB080BDBE900677BE902233046BF
:102E10003946CDE90023FEF755FB04460D46224610
:102E20002B46DDE90001FEF74BFB02460B46304620
:102E30003946FEF747FBCB4526462F46CBE9020134
:102E4000CBE90045E1D1BAF1010F7FF76BAF09EB98
:102E5000080ADAE900670DF59C7B7AE9022310463F
:102E6000194632463B46CDE90001FEF72BFB0446EE
:102E70000D4622462B46DDE90001FEF721FB3246D6
:102E80003B46FEF71FFBDA4526462F46CAE90201FC
:102E9000CAE90045E1D108F1080400274C443E4648
:102EA00050AD3846314674E90223FEF70BFBAC42C5
:102EB00007460E46F5D1039B002B7FF439AFD9E9C5
:102EC00000233C460A9FD9E90201C7E90023059B7C
:102ED0003546C7E9020103F00700C7E904450DF5CF
:102EE0001D7DBDE8F08F20462946FEF737FF10AB69
:102EF000DA4643F82B0034E62DE9F04F21F0004686
:102F0000B6F1795F85B00C4690469946054604DADD
:102F1000FEF724FF002800F083802A462346284637
:102F20002146FEF781FC2A46234606460F46FEF759
:102F30007BFC3FA3D3E9002382468B4630463946CB
:102F4000FEF772FC3CA3D3E90023FEF7B9FA324640
:102F50003B46FEF769FC3AA3D3E90023FEF7B2FA39
:102F600032463B46FEF760FC37A3D3E90023FEF769
:102F7000A7FA32463B46FEF757FC35A3D3E90023B8
:102F8000FEF7A0FA0E9BCDE900019BB340464946EF
:102F90000022334BFEF748FCDDE90023CDE90201B6
:102FA00050465946FEF740FC02460B46DDE9020159
:102FB000FEF786FA32463B46FEF736FC42464B4663
:102FC000FEF77EFA24A3D3E9002306460F465046B7
:102FD0005946FEF729FC02460B4630463946FEF7B5
:102FE00071FA02460B4628462146FEF769FA05B0FB
:102FF000BDE8F08FDDE9002330463946FEF714FCCA
:1030000015A3D3E90023FEF75BFA52465B46FEF7B1
:103010000BFC2A462346FEF755FA05B0BDE8F08FB3
:103020002846214605B0BDE8F08F00BFAFF3008011
:103030007CD5CF5A3AD9E53DEB9C2B8AE6E55A3E42
:103040007DFEB157E31DC73ED561C119A0012A3FDE
:10305000A6F810111111813F495555555555C53FD9
:103060000000E03FAFF3008021F00041704700BF57
:103070002DE9F047C1F30A58A8F2FF36132E0B468C
:103080000D4604460246894607461DDC002E40DBFD
:10309000DFF8F08048FA06F808EA010E5EEA02025C
:1030A00017D035A3D3E90023FEF70CFA0022002342
:1030B000FEF74AFE20B1002D40DB29EA0805002773
:1030C00038462946BDE8F087332E06DDB6F5806F19
:1030D0002FD020461946BDE8F087A8F213424FF0E2
:1030E000FF3A2AFA02FA1AEA000FF2D022A3D3E931
:1030F0000023FEF7E7F900220023FEF725FE002853
:10310000DED0002D1FDB4D4627EA0A073846294648
:10311000D8E719A3D3E90023FEF7D4F9002200234E
:10312000FEF712FE0028CBD0002D1ADB00273D460B
:10313000C6E702460B46FEF7C5F9CCE74FF480130D
:1031400033419944B9E7142E08D0C8F5866808F1D0
:103150000308012303FA08F31F19D4D309F1010965
:10316000D1E725F00042064B224318BF1D46002739
:10317000A6E700BFAFF300809C7500883CE4377E73
:103180000000F0BFFFFF0F00F8B5C1F30A56044678
:103190000D460B46174616BB21F00043034332D0C1
:1031A0000022374BFEF740FB364A974204460D4655
:1031B0000B4637DBC1F30A56363E3E4440F2FE7200
:1031C000964215DD22462B4629A1D1E9000100F0E7
:1031D0005FF827A3D3E90023FEF726FBF8BD40F2F2
:1031E000FF72964224D03E4440F2FE729642E9DCE1
:1031F000002E09DD23F0FF4323F4E00343EA0655E4
:1032000020462946F8BDF8BD16F1350F15DA4CF207
:1032100050339F4222462B461DDC17A1D1E9000105
:1032200000F036F814A3D3E90023FEF7FDFAF8BD49
:1032300002460B46FEF746F9F8BD23F0FF4323F4A0
:10324000E003363643EA06552046294600220E4B57
:10325000FEF7EAFAF8BD06A1D1E9000100F018F87E
:1032600003A3D3E90023FEF7DFFAF8BDAFF3008034
:103270009C7500883CE4377E59F3F8C21F6EA501A7
:1032800000005043B03CFFFF0000903CAFF30080D3
:1032900003F0004321F0004243EA0201704700BFFF
:1032A000F8B500BFF8BC08BC9E467047F8B500BF33
:0832B000F8BC08BC9E46704703
:1032B8004300000018000020FB21F93FFB210940D2
:1032C8007CD91240FB2119407A6A1F407CD92240E0
:1032D800BBFD2540FB2129403A462C407A6A2F4005
:1032E8005C4731407CD932409C6B3440BBFD354053
:1032F800DB8F3740FB2139401BB43A403A463C400B
:103308005AD83D407A6A3F404C7E40405C47414035
:103318006C1042407CD942408CA243409C6B444094
:10332800AC344540BBFD4540CBC64640DB8F4740EB
:10333800EB584840FB21494083F9A200444E6E00F7
:10334800FC291500D1572700DD34F50062DBC000E9
:103358003C999500419043006351FE00BBDEAB00F1
:10336800B761C5003A6E2400D24D42004906E0001C
:1033780009EA2E001C92D100EB1DFE0029B11C00A9
:10338800E83EA700F535820044BB2E009CE9840086
:10339800B4267000417E5F00D6913900538339000E
:1033A8009CF439008B5F840028F9BD00F81F3B00AE
:1033B800DEFF97000F980500112FEF000A5A8B00C7
:1033C8006D1F6D00CF7E360009CB2700464FB70032
:1033D8009E663F002DEA5F00BA277500E5EBC7003F
:1033E8003D7BF100F739070092528A00FB6BEA0037
:1033F8001FB15F00085D8D00300356007BFC46005E
:10340800F0AB6B0020BCCF0036F49A00E3A91D0096
:103418005E619100081BE60085996500A0145F00B5
:103428008D40680080D8FF0027734D0006063100E4
:10343800CA561500C9A873007BE260006B8CC000F7
:103448000200000003000000040000000600000065
:1034580000000040FB21F93F000000002D44743EAD
:10346800000000809846F83C0000006051CC783B92
:1034780000000080831BF0390000004020257A38C6
:10348800000000802282E336000000001DF3693549
:08349800FD1D0008D50100082C
:0434A000B10100086E
:1034A4000095BA0A000000000000000001020304B5
:1034B40006070809000000000000000004030020C3
:1034C4006C030020D4030020000000000000000072
:1034D40000000000000000000000000000000000E8
:1034E400000000000000000000000000B8320008E6
:1034F40000000000000000000000000000000000C8
:1035040000000000000000000000000000000000B7
:1035140000000000000000000000000000000000A7
:103524000000000000000000000000000000000097
:103534000000000000000000000000000000000087
:103544000000000000000000000000000000000077
:103554000000000000000000000000000000000067
:1035640001000000000000000E33CDAB34126DE604
:10357400ECDE05000B00000000000000000000006D
:103584000000000000000000000000000000000037
:103594000000000000000000000000000000000027
:1035A4000000000000000000000000000000000017
:1035B4000000000000000000000000000000000007
:0400000508001EEDE4
:00000001FF
