:020000040800F2
:10000000FFFF0220410E0008910E0008910E00082B
:10001000910E0008910E0008910E000800000000EB
:10002000000000000000000000000000910E000829
:10003000910E000800000000910E0008910E0008CB
:10004000910E0008910E0008910E0008910E000814
:10005000910E0008910E0008910E0008910E000804
:10006000910E0008910E0008910E0008910E0008F4
:10007000910E0008910E0008910E0008910E0008E4
:10008000910E0008910E0008910E0008910E0008D4
:10009000910E0008910E0008910E0008910E0008C4
:1000A000910E0008910E0008910E0008910E0008B4
:1000B000910E0008910E0008910E0008910E0008A4
:1000C000910E0008910E0008910E0008910E000894
:1000D000910E0008910E0008910E0008910E000884
:1000E000910E0008910E0008910E0008910E000874
:1000F000910E0008910E0008910E0008910E000864
:10010000910E0008910E0008910E0008910E000853
:10011000910E0008910E0008910E0008910E000843
:10012000910E0008910E0008910E0008910E000833
:10013000910E0008910E0008910E0008910E000823
:10014000910E0008910E0008910E0008910E000813
:10015000910E0008910E0008910E0008910E000803
:10016000910E0008910E0008910E0008910E0008F3
:10017000910E0008910E0008910E0008000000008A
:10018000910E0008910E0008910E0008910E0008D3
:10019000910E0008910E0008910E0008910E0008C3
:0C01A000910E0008910E0008910E00085E
:1001AC0010B5054C237833B9044B13B10448AFF3A5
:1001BC0000800123237010BD4004002000000000CB
:1001CC00940E0008084B10B51BB108480849AFF352
:1001DC0000800848036803B910BD074B002BFBD007
:1001EC00BDE81040184700BF00000000940E000846
:1001FC0044040020400400200000000080B485B0BE
:10020C0000AF78607B6803F13F4303F57E03002B5E
:10021C0001DA03F2FF339B12FB600D490C4B1B6997
:10022C000120FA6800FA02F2D24313400B6108492C
:10023C00074B1B6B0120FA6800FA02F2134343F4DC
:10024C0080130B631437BD465DF8047B704700BF09
:10025C000038024080B400AF074A074B1B6A23F0FA
:10026C0000531362044A044B1B6C43F00053136499
:10027C00BD465DF8047B70470038024080B400AF87
:10028C00074A074B1B6A23F010031362044A044B02
:10029C001B6C43F010031364BD465DF8047B704780
:1002AC000038024080B487B000AF374B9B6803F432
:1002BC008073FB60FB68002B02D101237B6109E09A
:1002CC00314B9B681B0903F0070301331A460123CA
:1002DC0093407B612C4B5B689B09C3F30803BB60A9
:1002EC00294B5B6803F03F037B60274B5B681B0C5F
:1002FC0003F0030301331A46012393403B60224B66
:10030C009B6803F00C039B08002B05D11F4A7B69EB
:10031C0092FBF3F33B6130E01B4B9B6803F00C0347
:10032C009B08012B05D11A4A7B6992FBF3F33B61C5
:10033C0023E0154B5B689B0D03F00103002B0ED1E2
:10034C00BB68124A02FB03F27B68396801FB03F3BA
:10035C00796901FB03F392FBF3F33B610DE07B68DE
:10036C003A6802FB03F37A6902FB03F3084A92FB37
:10037C00F3F3BA6802FB03F33B613B6918461C3785
:10038C00BD465DF8047B7047003802400024F40041
:10039C0000127A0080B485B000AF78600F4B9B6878
:1003AC001B0B03F00103002B0AD00C4B9B689B0A20
:1003BC0003F0030301331A4601239340FB6001E071
:1003CC000123FB60FB687A68B2FBF3F3BB60BB688C
:1003DC0018461437BD465DF8047B70470038024060
:1003EC0080B582B000AF786039603868FFF706FFDF
:1003FC003B681B687A685200032101FA02F21A4327
:10040C003B681A603B68DB687A685200032101FA8A
:10041C0002F2D2431A403B68DA603B68DA683B6808
:10042C00DA600837BD4680BD80B584B000AFF86097
:10043C00B9607A607868FFF7E1FE7B681B68BA6880
:10044C005200032101FA02F2D2431A407B681A606F
:10045C007B681B68BA685200012101FA02F21A4348
:10046C007B681A607B685B680121BA6801FA02F24A
:10047C00D2431A407B685A607B689B68BA6852000A
:10048C00032101FA02F2D2431A407B689A607B681E
:10049C009B68BA685200F96801FA02F21A437B6849
:1004AC009A601037BD4680BD80B483B000AF034660
:1004BC003960FB80FB88012202FA03F31A463B6881
:1004CC009A610C37BD465DF8047B704780B483B0ED
:1004DC0000AF03463960FB80FB881033012202FA1F
:1004EC0003F31A463B689A610C37BD465DF8047BF2
:1004FC00704700BF80B500AFFFF7ACFE00200021B5
:10050C0000F02CFB0020002100F080FB012000F00B
:10051C0061FA002000F07AFA012000F093FA002032
:10052C0000F0ACFA0120002100F0C4FA00200021F8
:10053C0000F0EAFA80BD00BF80B500AF0420094985
:10054C00FFF74EFF05200749FFF74AFF0320042160
:10055C00044AFFF769FF03200521024AFFF764FFF5
:10056C0080BD00BF0000024080B500AFFFF786FEE3
:10057C00012000F089F9002000F09CF9022000F025
:10058C00F5F980BD80B483B000AF786002E07B6881
:10059C00013B7B607B68002BF9D10C37BD465DF8C5
:1005AC00047B704780B584B000AFFFF7C5FFFFF741
:1005BC00A1FFFFF7D9FF00237B600023BB6000F095
:1005CC008FF90023FB600023BB6016E0FB680A3345
:1005DC00FB600C4AFB6893600B4B1B6903F0010337
:1005EC00002B06D0084A084B1B6923F0010313614A
:1005FC0000E0F1E7BB680133BB60BB68B3F5B47FC7
:10060C00E4D3DEE7007400400010004080B500AF7A
:10061C00114A114B1B6843F0010313600E4B00226F
:10062C009A600D4A0C4B1B6823F0847323F48033BF
:10063C001360094B094A5A60074A074B1B6823F49D
:10064C0080231360044B0022DA6000F087F8044B1F
:10065C004FF000629A6080BD0038024010300024D8
:10066C0000ED00E080B487B000AF00233B610023B5
:10067C007B610223FB600023BB6002237B60324B57
:10068C009B6803F00C033B613B69042B07D0082BE0
:10069C0009D0002B3FD12D4B2D4A1A603FE02B4B3C
:1006AC002C4A1A603BE0284B5B6803F480039B0DDB
:1006BC00BB60254B5B6803F03F037B60BB68002B82
:1006CC000DD0244A7B68B2FBF3F21F4B596847F6F6
:1006DC00C0730B409B0903FB02F37B610CE01C4ACB
:1006EC007B68B2FBF3F2184B596847F6C0730B40AA
:1006FC009B0903FB02F37B61134B5B6803F44033F0
:10070C001B0C01335B00FB607A69FB68B2FBF3F3F3
:10071C000E4A136003E00D4B0D4A1A6000BF0A4BE2
:10072C009B6803F0F0031B090B4AD35CDBB23B6103
:10073C00064B1A683B6922FA03F3044A13601C3710
:10074C00BD465DF8047B7047003802400000002075
:10075C000024F40000127A000400002080B483B05E
:10076C0000AF00237B6000233B60434A424B1B6875
:10077C0043F480331360404B1B6803F400333B603D
:10078C007B6801337B603B68002B04D17B6841F2B2
:10079C0088329342EFD1384B1B6803F40033002BA3
:1007AC0002D001233B6001E000233B603B68012B3E
:1007BC005CD1314A304B1B6C43F0805313642F4A8D
:1007CC002E4B1B6843F4404313602B4A2A4B9B6807
:1007DC009360294A284B9B6843F400439360264A54
:1007EC00254B9B6843F4A0539360234B244A5A60D7
:1007FC00214A214B1B6843F08073136000BF1E4BD2
:10080C001B6803F00073002BF9D01C4A1B4B1B68B0
:10081C0043F48033136000BF184B5B6803F48033E0
:10082C00002BF9D0154A154B1B6843F400331360A9
:10083C0000BF124B5B6803F40033002BF9D0114B53
:10084C0040F205721A600C4A0B4B9B6823F00303B1
:10085C009360094A084B9B6843F00203936000BF06
:10086C00054B9B6803F00C03082BF9D10C37BD46E4
:10087C005DF8047B704700BF0038024000700040F8
:10088C00085A4007003C024080B483B000AF786047
:10089C007B68B3F5803F03DB054B4FF6FF72DA62E2
:1008AC00034A7B68D3620C37BD465DF8047B704706
:1008BC000010004080B483B000AF78607B68B3F563
:1008CC00803F03DB054B4FF6FF729A62034A7B684D
:1008DC0093620C37BD465DF8047B704700100040F6
:1008EC0080B400AF044A044B1B6843F0010313604F
:1008FC00BD465DF8047B70470010004080B400AF2B
:10090C00044A044B1B6823F002031360BD465DF8D8
:10091C00047B70470010004080B400AF044A044BC5
:10092C001B6843F002031360BD465DF8047B7047FF
:10093C000010004080B483B000AF78607B68002B5F
:10094C0006D0094A084B1B6843F00403136005E00A
:10095C00054A054B1B6823F0040313600C37BD4696
:10096C005DF8047B704700BF0010004080B483B07A
:10097C0000AF7860084A084B5B6823F07003536043
:10098C000549054B5B687A68120113434B600C37C1
:10099C00BD465DF8047B70470010004080B400AF8A
:1009AC00044A044B5B6943F001035361BD465DF897
:1009BC00047B70470010004080B400AF044A044B25
:1009CC001B6843F008031360BD465DF8047B704759
:1009DC000010004080B483B000AF78607B68002BBF
:1009EC0006D0094A084B1B6843F00103136005E06D
:1009FC00054A054B1B6823F0010313600C37BD46F9
:100A0C005DF8047B704700BF0074004080B483B075
:100A1C0000AF78607B68002B06D0094A084B1B6836
:100A2C0043F48033136005E0054A054B1B6823F43F
:100A3C00803313600C37BD465DF8047B704700BFF4
:100A4C000074004080B483B000AF78607B68002BEA
:100A5C0006D0094A084B1B6823F00203136005E01B
:100A6C00054A054B1B6843F0020313600C37BD4667
:100A7C005DF8047B704700BF0074004080B483B005
:100A8C0000AF78607B68002B06D0094A084B1B68C6
:100A9C0023F40033136005E0054A054B1B6843F44F
:100AAC00003313600C37BD465DF8047B704700BF04
:100ABC000074004080B483B000AF786039607B680C
:100ACC00002B13D00F4A0F4B1B6843F00403136029
:100ADC000C4A0C4B1B6823F0380313600949094B73
:100AEC001B683A68D20013430B6005E0054A054BBE
:100AFC001B6823F0040313600C37BD465DF8047BC0
:100B0C00704700BF0074004080B483B000AF7860C1
:100B1C0039607B68002B13D00F4A0F4B1B6843F4D2
:100B2C00802313600C4A0C4B1B6823F46013136076
:100B3C000949094B1B683A68D20413430B6005E062
:100B4C00054A054B1B6823F4802313600C37BD4604
:100B5C005DF8047B704700BF0074004080B483B024
:100B6C0000AF786039607B68002B0DD1264A264B8C
:100B7C001B6823F0C00313602349234B1B687A685E
:100B8C00920113430B603AE07B68012B1AD11E4A89
:100B9C001D4B1B6823F0C00313601B491A4B1B68C9
:100BAC007A68920113430B60174A174B1B6823F4A6
:100BBC00706313601449144B1B683A681202134398
:100BCC000B601CE07B68022B19D10F4A0E4B1B6883
:100BDC0023F0C00313600C490B4B1B687A6892011D
:100BEC0013430B60084A084B1B6823F470631360B3
:100BFC000549054B1B683A68120213430B600C370E
:100C0C00BD465DF8047B70470074004080B483B02F
:100C1C0000AF786039607B68002B0DD1264A264BDB
:100C2C001B6823F4400313602349234B1B687A6829
:100C3C00920513430B603AE07B68012B1AD11E4AD4
:100C4C001D4B1B6823F4400313601B491A4B1B6894
:100C5C007A68920513430B60174A174B1B6823F0F5
:100C6C00706313601449144B1B683A6812061343E3
:100C7C000B601CE07B68022B19D10F4A0E4B1B68D2
:100C8C0023F4400313600C490B4B1B687A689205E4
:100C9C0013430B60084A084B1B6823F07063136006
:100CAC000549054B1B683A68120613430B600C3759
:100CBC00BD465DF8047B70470074004080B400AF03
:100CCC00044A044B5B6843F001035360BD465DF876
:100CDC00047B70470074004080B400AF044A044B9E
:100CEC005B6843F002035360BD465DF8047B7047BC
:100CFC000074004070B50F4E0F4D761BB61018BF28
:100D0C00002405D0013455F8043B9847A642F9D18C
:100D1C000A4E0B4D761B00F0B7F8B61018BF002426
:100D2C0006D0013455F8043B9847A642F9D170BD62
:100D3C0070BD00BFB40E0008B40E0008BC0E000855
:100D4C00B40E0008024B13B1024800F005B870470E
:100D5C0000000000710D0008014600200246034609
:100D6C0000F016B838B5084B084DED1AAC1018BF8A
:100D7C00ED1805D0013C55F8043D9847002CF9D1ED
:100D8C00BDE8384000F086B8BC0E0008C00E000864
:100D9C002DE9F047254C2568D5F84841064688468C
:100DAC0092469946CCB360681F2818DC431C7EB170
:100DBC0004EB80050121C5F888A0D4F8887101FAEC
:100DCC0000F21743022EC4F88871C5F808911ED0A2
:100DDC000230636044F820800020BDE8F087144B9B
:100DEC0003B34FF4C870AFF300800446D0B1D5F80C
:100DFC004831002780E88800C5F84841384601236F
:100E0C00C4F88871C4F88C71002EE1D0D0E7D4F806
:100E1C008C110A43C4F88C21DAE705F5A674C5F8E1
:100E2C004841C0E74FF0FF30BDE8F087B00E000836
:100E3C0000000000DFF834D0002103E00C4B5B58BD
:100E4C00435004310B480C4B42189A42F6D30B4AD0
:100E5C0002E0002342F8043B094B9A42F9D3FFF716
:100E6C00D5FBFFF747FFFFF79DFB7047FFFF022005
:100E7C00C00E0008000000204004002040040020A8
:100E8C005C040020FEE70000F8B500BFF8BC08BC0D
:100E9C009E467047F8B500BFF8BC08BC9E4670472C
:080EAC004300000018000020C3
:080EB400510D0008D1010008F6
:040EBC00AD0100087C
:100EC0000095BA0A000000000000000001020304BF
:100ED00006070809000000000000000004030020CD
:100EE0006C030020D403002000000000000000007C
:100EF00000000000000000000000000000000000F2
:100F0000000000000000000000000000AC0E00081F
:100F100000000000000000000000000000000000D1
:100F200000000000000000000000000000000000C1
:100F300000000000000000000000000000000000B1
:100F400000000000000000000000000000000000A1
:100F50000000000000000000000000000000000091
:100F60000000000000000000000000000000000081
:100F70000000000000000000000000000000000071
:100F800001000000000000000E33CDAB34126DE60E
:100F9000ECDE05000B000000000000000000000077
:100FA0000000000000000000000000000000000041
:100FB0000000000000000000000000000000000031
:100FC0000000000000000000000000000000000021
:100FD0000000000000000000000000000000000011
:0400000508000E41A0
:00000001FF
